{
  "address": "0xCBa0CF440e383E6C6cc4484904449BAe9dB312F9",
  "abi": [
    {
      "inputs": [
        {
          "internalType": "address",
          "name": "_brevisRequest",
          "type": "address"
        }
      ],
      "stateMutability": "nonpayable",
      "type": "constructor"
    },
    {
      "inputs": [
        {
          "internalType": "address",
          "name": "owner",
          "type": "address"
        }
      ],
      "name": "OwnableInvalidOwner",
      "type": "error"
    },
    {
      "inputs": [
        {
          "internalType": "address",
          "name": "account",
          "type": "address"
        }
      ],
      "name": "OwnableUnauthorizedAccount",
      "type": "error"
    },
    {
      "anonymous": false,
      "inputs": [
        {
          "indexed": true,
          "internalType": "address",
          "name": "previousOwner",
          "type": "address"
        },
        {
          "indexed": true,
          "internalType": "address",
          "name": "newOwner",
          "type": "address"
        }
      ],
      "name": "OwnershipTransferred",
      "type": "event"
    },
    {
      "anonymous": false,
      "inputs": [
        {
          "indexed": false,
          "internalType": "uint64",
          "name": "startBlockNum",
          "type": "uint64"
        },
        {
          "indexed": false,
          "internalType": "uint64",
          "name": "endBlockNum",
          "type": "uint64"
        },
        {
          "indexed": false,
          "internalType": "address",
          "name": "account",
          "type": "address"
        },
        {
          "indexed": false,
          "internalType": "uint248",
          "name": "reward",
          "type": "uint248"
        }
      ],
      "name": "RewardAttested",
      "type": "event"
    },
    {
      "inputs": [
        {
          "internalType": "bytes32[]",
          "name": "_appVkHashes",
          "type": "bytes32[]"
        },
        {
          "internalType": "bytes[]",
          "name": "_appCircuitOutputs",
          "type": "bytes[]"
        }
      ],
      "name": "brevisBatchCallback",
      "outputs": [],
      "stateMutability": "nonpayable",
      "type": "function"
    },
    {
      "inputs": [
        {
          "internalType": "bytes32",
          "name": "_appVkHash",
          "type": "bytes32"
        },
        {
          "internalType": "bytes",
          "name": "_appCircuitOutput",
          "type": "bytes"
        }
      ],
      "name": "brevisCallback",
      "outputs": [],
      "stateMutability": "nonpayable",
      "type": "function"
    },
    {
      "inputs": [],
      "name": "brevisRequest",
      "outputs": [
        {
          "internalType": "address",
          "name": "",
          "type": "address"
        }
      ],
      "stateMutability": "view",
      "type": "function"
    },
    {
      "inputs": [
        {
          "internalType": "bytes32",
          "name": "_vkHash",
          "type": "bytes32"
        }
      ],
      "name": "deprecateVkHash",
      "outputs": [],
      "stateMutability": "nonpayable",
      "type": "function"
    },
    {
      "inputs": [
        {
          "internalType": "bytes",
          "name": "o",
          "type": "bytes"
        }
      ],
      "name": "mockDecode",
      "outputs": [
        {
          "internalType": "uint64",
          "name": "startBlockNum",
          "type": "uint64"
        },
        {
          "internalType": "uint64",
          "name": "endBlockNum",
          "type": "uint64"
        },
        {
          "internalType": "address[]",
          "name": "accounts",
          "type": "address[]"
        },
        {
          "internalType": "uint248[]",
          "name": "rewards",
          "type": "uint248[]"
        }
      ],
      "stateMutability": "pure",
      "type": "function"
    },
    {
      "inputs": [],
      "name": "owner",
      "outputs": [
        {
          "internalType": "address",
          "name": "",
          "type": "address"
        }
      ],
      "stateMutability": "view",
      "type": "function"
    },
    {
      "inputs": [],
      "name": "renounceOwnership",
      "outputs": [],
      "stateMutability": "nonpayable",
      "type": "function"
    },
    {
      "inputs": [
        {
          "internalType": "bytes32",
          "name": "_vkHash",
          "type": "bytes32"
        }
      ],
      "name": "setVkHash",
      "outputs": [],
      "stateMutability": "nonpayable",
      "type": "function"
    },
    {
      "inputs": [
        {
          "internalType": "address",
          "name": "newOwner",
          "type": "address"
        }
      ],
      "name": "transferOwnership",
      "outputs": [],
      "stateMutability": "nonpayable",
      "type": "function"
    }
  ],
  "transactionHash": "0x72f15f70604bd2a5e4db11d26a17749d925eb31f232a89056849b9cfa2bfe1d8",
  "args": [
    "0xa082F86d9d1660C29cf3f962A31d7D20E367154F"
  ],
  "numDeployments": 1,
  "solcInputHash": "764ad63bc855a2d115abf24fc41dbe9d",
  "bytecode": "0x6080346100cb57601f610beb38819003918201601f19168301916001600160401b038311848410176100d0578084926020946040528339810103126100cb57516001600160a01b0390818116908190036100cb57600080546001600160a01b0319908116909217905533156100b257600154903390821617600155604051913391167f8be0079c531659141344cd1fd0a4f28419497f9722a3daafe3b4186f6b6457e0600080a3610b0490816100e78239f35b604051631e4fbdf760e01b815260006004820152602490fd5b600080fd5b634e487b7160e01b600052604160045260246000fdfe608060408181526004908136101561001657600080fd5b600092833560e01c90816338931a31146105c4575080633bca02fc146104e3578063715018a61461047b5780637859f6d91461044857806379d6b6a2146103f65780638da5cb5b146103ce5780638fc17cd41461039e5780639711b89d146101245763f2fde38b1461008757600080fd5b34610120576020366003190112610120578135916001600160a01b039182841680940361011c576100b661064b565b83156101065750506001548273ffffffffffffffffffffffffffffffffffffffff19821617600155167f8be0079c531659141344cd1fd0a4f28419497f9722a3daafe3b4186f6b6457e08380a380f35b51631e4fbdf760e01b8152908101849052602490fd5b8480fd5b8280fd5b50913461039b5760208060031936011261039757823567ffffffffffffffff811161012057610156903690850161061d565b9290601095610166878611610677565b6008968588116103935785811161039357600f19860186811161038057603398979694959392988161019b82809406156106db565b04916101a683610755565b956101b084610755565b98885b858110610274575b5050505050506080875197889782890193803560c01c8a52013560c01c8489015287015282518091528160a08701930190845b8181106102545750505084820360608601528080855193848152019401925b82811061021c57505050500390f35b83517effffffffffffffffffffffffffffffffffffffffffffffffffffffffffffff168552869550938101939281019260010161020d565b82516001600160a01b0316855288975093830193918301916001016101ee565b80859d97989a999b9c9d02858104820361036d5780850180861161035a57602482810191828211610348576102d68f86906102c38f876001600160a01b03968d6102bd936106c3565b906107c0565b60601c6102d083836107f1565b526107f1565b51161561033857604392830180931161032757506103148f938f929461030c61030683968f988b61031a9a6106c3565b9061081b565b901c926107f1565b5261079b565b9b9a99979896959b6101b3565b634e487b7160e01b8c52601185528bfd5b5050509b9a99979896959b6101bb565b50634e487b7160e01b8c52601185528bfd5b634e487b7160e01b8b526011845260248bfd5b634e487b7160e01b8a526011835260248afd5b634e487b7160e01b855260118852602485fd5b8380fd5b5080fd5b80fd5b509034610120576020366003190112610120576103b961064b565b35825260026020528120805460ff1916905580f35b8382346103975781600319360112610397576020906001600160a01b03600154169051908152f35b503461012057366003190112610397576024359067ffffffffffffffff821161012057610429610445923690830161061d565b9161043f6001600160a01b038654163314610841565b3561088d565b80f35b5090346101205760203660031901126101205761046361064b565b35825260026020528120805460ff1916600117905580f35b833461039b578060031936011261039b5761049461064b565b806001600160a01b0360015473ffffffffffffffffffffffffffffffffffffffff198116600155167f8be0079c531659141344cd1fd0a4f28419497f9722a3daafe3b4186f6b6457e08280a380f35b5034610120573660031901126103975767ffffffffffffffff9080358281116103935761051390369083016105e7565b919060249182358581116105c05761052e90369083016105e7565b9390916105466001600160a01b038954163314610841565b875b868110610553578880f35b8060051b90868110156105ae5781850135601e19863603018112156105aa578501918235928a84116105a6576020019280360384136105a6576105a19361059c9289013561088d565b61079b565b610548565b8b80fd5b8a80fd5b634e487b7160e01b8a5260328352838afd5b8680fd5b8490346103975781600319360112610397576001600160a01b0360209254168152f35b9181601f840112156106185782359167ffffffffffffffff8311610618576020808501948460051b01011161061857565b600080fd5b9181601f840112156106185782359167ffffffffffffffff8311610618576020838186019501011161061857565b6001600160a01b0360015416330361065f57565b60405163118cdaa760e01b8152336004820152602490fd5b1561067e57565b60405162461bcd60e51b815260206004820152600e60248201527f696e76616c6964206f75747075740000000000000000000000000000000000006044820152606490fd5b90939293848311610618578411610618578101920390565b156106e257565b60405162461bcd60e51b815260206004820152601660248201527f696e76616c6964206163636f756e74206f7574707574000000000000000000006044820152606490fd5b67ffffffffffffffff811161073f5760051b60200190565b634e487b7160e01b600052604160045260246000fd5b9061075f82610727565b60405190601f1990601f018116820167ffffffffffffffff81118382101761073f576040528382526107918294610727565b0190602036910137565b60001981146107aa5760010190565b634e487b7160e01b600052601160045260246000fd5b6bffffffffffffffffffffffff1990358181169392601481106107e257505050565b60140360031b82901b16169150565b80518210156108055760209160051b010190565b634e487b7160e01b600052603260045260246000fd5b60ff1990358181169392601f811061083257505050565b601f0360031b82901b16169150565b1561084857565b60405162461bcd60e51b815260206004820152600e60248201527f696e76616c69642063616c6c65720000000000000000000000000000000000006044820152606490fd5b92919060009384526020916002835260409060ff828720541615610a8a576010906108b9828211610677565b60089681881161039b57843560c01c97828411610397578581013560c01c93600f198401848111610a76576033816108f482809406156106db565b04916108ff83610755565b9561090984610755565b99865b8581106109b457505050505050505b81518110156109aa57807f55debc0c1033b5967b46018471cd740ee8716ab35b6ee05c4d085bb1bfe4835e60806001600160a01b0361095d6109a595876107f1565b51167effffffffffffffffffffffffffffffffffffffffffffffffffffffffffffff610989858b6107f1565b51168851918d8352888c840152898301526060820152a161079b565b61091b565b5050505050509050565b8085028581048203610a6257808501808611610a4e57602482810191828211610a3b576109f5856109ec8f93866102bd918c8c6106c3565b60601c926107f1565b526043928301809311610a295750610314838f92610306610a249695610a1c928a8a6106c3565b8b1c926107f1565b61090c565b634e487b7160e01b8b5260116004528afd5b50634e487b7160e01b8b5260116004528afd5b634e487b7160e01b8a52601160045260248afd5b634e487b7160e01b89526011600452602489fd5b634e487b7160e01b84526011600452602484fd5b815162461bcd60e51b815260048101859052600a60248201527f696e76616c696420766b000000000000000000000000000000000000000000006044820152606490fdfea2646970667358221220b8495f1f440fc2a176a03dc4985130f4ee2635b075b4db1396cc5d8a9ad3408a64736f6c63430008140033",
  "devdoc": {
    "errors": {
      "OwnableInvalidOwner(address)": [
        {
          "details": "The owner is not a valid owner account. (eg. `address(0)`)"
        }
      ],
      "OwnableUnauthorizedAccount(address)": [
        {
          "details": "The caller account is not authorized to perform an operation."
        }
      ]
    },
    "kind": "dev",
    "methods": {
      "owner()": {
        "details": "Returns the address of the current owner."
      },
      "renounceOwnership()": {
        "details": "Leaves the contract without owner. It will not be possible to call `onlyOwner` functions. Can only be called by the current owner. NOTE: Renouncing ownership will leave the contract without an owner, thereby disabling any functionality that is only available to the owner."
      },
      "transferOwnership(address)": {
        "details": "Transfers ownership of the contract to a new account (`newOwner`). Can only be called by the current owner."
      }
    },
    "version": 1
  },
  "userdoc": {
    "kind": "user",
    "methods": {},
    "version": 1
  },
  "storageLayout": {
    "storage": [
      {
        "astId": 604,
        "contract": "contracts/MellowHolderReward.sol:MellowHolderReward",
        "label": "brevisRequest",
        "offset": 0,
        "slot": "0",
        "type": "t_address"
      },
      {
        "astId": 8,
        "contract": "contracts/MellowHolderReward.sol:MellowHolderReward",
        "label": "_owner",
        "offset": 0,
        "slot": "1",
        "type": "t_address"
      },
      {
        "astId": 199,
        "contract": "contracts/MellowHolderReward.sol:MellowHolderReward",
        "label": "vkHashes",
        "offset": 0,
        "slot": "2",
        "type": "t_mapping(t_bytes32,t_bool)"
      }
    ],
    "types": {
      "t_address": {
        "encoding": "inplace",
        "label": "address",
        "numberOfBytes": "20"
      },
      "t_bool": {
        "encoding": "inplace",
        "label": "bool",
        "numberOfBytes": "1"
      },
      "t_bytes32": {
        "encoding": "inplace",
        "label": "bytes32",
        "numberOfBytes": "32"
      },
      "t_mapping(t_bytes32,t_bool)": {
        "encoding": "mapping",
        "key": "t_bytes32",
        "label": "mapping(bytes32 => bool)",
        "numberOfBytes": "32",
        "value": "t_bool"
      }
    }
  }
}